{
  "_format": "hh-sol-artifact-1",
  "contractName": "VoteSessionFactory",
  "sourceName": "contracts/VoteSessionFactory.sol",
  "abi": [
    {
      "anonymous": false,
      "inputs": [
        {
          "indexed": true,
          "internalType": "uint256",
          "name": "sessionId",
          "type": "uint256"
        },
        {
          "indexed": false,
          "internalType": "address",
          "name": "sessionAddress",
          "type": "address"
        },
        {
          "indexed": false,
          "internalType": "address",
          "name": "creator",
          "type": "address"
        }
      ],
      "name": "SessionCreated",
      "type": "event"
    },
    {
      "inputs": [
        {
          "internalType": "uint256",
          "name": "",
          "type": "uint256"
        }
      ],
      "name": "allSessionIds",
      "outputs": [
        {
          "internalType": "uint256",
          "name": "",
          "type": "uint256"
        }
      ],
      "stateMutability": "view",
      "type": "function"
    },
    {
      "inputs": [
        {
          "internalType": "uint256",
          "name": "sessionId",
          "type": "uint256"
        },
        {
          "internalType": "string[]",
          "name": "participants",
          "type": "string[]"
        },
        {
          "internalType": "uint256",
          "name": "endTimestamp",
          "type": "uint256"
        },
        {
          "internalType": "enum VoteSession.VoteMode",
          "name": "mode",
          "type": "uint8"
        },
        {
          "internalType": "uint8",
          "name": "maxChoices",
          "type": "uint8"
        }
      ],
      "name": "createVoteSession",
      "outputs": [
        {
          "internalType": "address",
          "name": "sessionAddress",
          "type": "address"
        }
      ],
      "stateMutability": "nonpayable",
      "type": "function"
    },
    {
      "inputs": [],
      "name": "getAllSessionIds",
      "outputs": [
        {
          "internalType": "uint256[]",
          "name": "",
          "type": "uint256[]"
        }
      ],
      "stateMutability": "view",
      "type": "function"
    },
    {
      "inputs": [],
      "name": "getSessionCount",
      "outputs": [
        {
          "internalType": "uint256",
          "name": "",
          "type": "uint256"
        }
      ],
      "stateMutability": "view",
      "type": "function"
    },
    {
      "inputs": [
        {
          "internalType": "uint256",
          "name": "",
          "type": "uint256"
        }
      ],
      "name": "sessionCreators",
      "outputs": [
        {
          "internalType": "address",
          "name": "",
          "type": "address"
        }
      ],
      "stateMutability": "view",
      "type": "function"
    },
    {
      "inputs": [
        {
          "internalType": "uint256",
          "name": "",
          "type": "uint256"
        }
      ],
      "name": "sessions",
      "outputs": [
        {
          "internalType": "address",
          "name": "",
          "type": "address"
        }
      ],
      "stateMutability": "view",
      "type": "function"
    }
  ],
  "bytecode": "0x6080604052348015600f57600080fd5b506131088061001f6000396000f3fe608060405234801561001057600080fd5b50600436106100625760003560e01c80631200d5a614610067578063522f0aa5146100855780636e6734bf146100b557806374f98fe7146100d357806383c4b7a314610103578063d2ee273b14610133575b600080fd5b61006f610163565b60405161007c919061051e565b60405180910390f35b61009f600480360381019061009a9190610580565b6101bb565b6040516100ac91906105bc565b60405180910390f35b6100bd6101df565b6040516100ca91906105bc565b60405180910390f35b6100ed60048036038101906100e89190610861565b6101ec565b6040516100fa9190610939565b60405180910390f35b61011d60048036038101906101189190610580565b6103e3565b60405161012a9190610939565b60405180910390f35b61014d60048036038101906101489190610580565b610416565b60405161015a9190610939565b60405180910390f35b606060028054806020026020016040519081016040528092919081815260200182805480156101b157602002820191906000526020600020905b81548152602001906001019080831161019d575b5050505050905090565b600281815481106101cb57600080fd5b906000526020600020016000915090505481565b6000600280549050905090565b60008073ffffffffffffffffffffffffffffffffffffffff1660008088815260200190815260200160002060009054906101000a900473ffffffffffffffffffffffffffffffffffffffff1673ffffffffffffffffffffffffffffffffffffffff161461028e576040517f08c379a0000000000000000000000000000000000000000000000000000000008152600401610285906109d7565b60405180910390fd5b60008686868686336040516102a290610449565b6102b196959493929190610bbe565b604051809103906000f0801580156102cd573d6000803e3d6000fd5b5090508060008089815260200190815260200160002060006101000a81548173ffffffffffffffffffffffffffffffffffffffff021916908373ffffffffffffffffffffffffffffffffffffffff160217905550336001600089815260200190815260200160002060006101000a81548173ffffffffffffffffffffffffffffffffffffffff021916908373ffffffffffffffffffffffffffffffffffffffff1602179055506002879080600181540180825580915050600190039060005260206000200160009091909190915055867f7b4472bc3cca0ee1d2a88dc0343d290429b8fa93d9c7dbc838dd8b096291dbc382336040516103ce929190610c26565b60405180910390a28091505095945050505050565b60006020528060005260406000206000915054906101000a900473ffffffffffffffffffffffffffffffffffffffff1681565b60016020528060005260406000206000915054906101000a900473ffffffffffffffffffffffffffffffffffffffff1681565b61248380610c5083390190565b600081519050919050565b600082825260208201905092915050565b6000819050602082019050919050565b6000819050919050565b61049581610482565b82525050565b60006104a7838361048c565b60208301905092915050565b6000602082019050919050565b60006104cb82610456565b6104d58185610461565b93506104e083610472565b8060005b838110156105115781516104f8888261049b565b9750610503836104b3565b9250506001810190506104e4565b5085935050505092915050565b6000602082019050818103600083015261053881846104c0565b905092915050565b6000604051905090565b600080fd5b600080fd5b61055d81610482565b811461056857600080fd5b50565b60008135905061057a81610554565b92915050565b6000602082840312156105965761059561054a565b5b60006105a48482850161056b565b91505092915050565b6105b681610482565b82525050565b60006020820190506105d160008301846105ad565b92915050565b600080fd5b6000601f19601f8301169050919050565b7f4e487b7100000000000000000000000000000000000000000000000000000000600052604160045260246000fd5b610625826105dc565b810181811067ffffffffffffffff82111715610644576106436105ed565b5b80604052505050565b6000610657610540565b9050610663828261061c565b919050565b600067ffffffffffffffff821115610683576106826105ed565b5b602082029050602081019050919050565b600080fd5b600080fd5b600067ffffffffffffffff8211156106b9576106b86105ed565b5b6106c2826105dc565b9050602081019050919050565b82818337600083830152505050565b60006106f16106ec8461069e565b61064d565b90508281526020810184848401111561070d5761070c610699565b5b6107188482856106cf565b509392505050565b600082601f830112610735576107346105d7565b5b81356107458482602086016106de565b91505092915050565b600061076161075c84610668565b61064d565b9050808382526020820190506020840283018581111561078457610783610694565b5b835b818110156107cb57803567ffffffffffffffff8111156107a9576107a86105d7565b5b8086016107b68982610720565b85526020850194505050602081019050610786565b5050509392505050565b600082601f8301126107ea576107e96105d7565b5b81356107fa84826020860161074e565b91505092915050565b6002811061081057600080fd5b50565b60008135905061082281610803565b92915050565b600060ff82169050919050565b61083e81610828565b811461084957600080fd5b50565b60008135905061085b81610835565b92915050565b600080600080600060a0868803121561087d5761087c61054a565b5b600061088b8882890161056b565b955050602086013567ffffffffffffffff8111156108ac576108ab61054f565b5b6108b8888289016107d5565b94505060406108c98882890161056b565b93505060606108da88828901610813565b92505060806108eb8882890161084c565b9150509295509295909350565b600073ffffffffffffffffffffffffffffffffffffffff82169050919050565b6000610923826108f8565b9050919050565b61093381610918565b82525050565b600060208201905061094e600083018461092a565b92915050565b600082825260208201905092915050565b7f53657373696f6e2077697468207468697320494420616c72656164792065786960008201527f7374730000000000000000000000000000000000000000000000000000000000602082015250565b60006109c1602383610954565b91506109cc82610965565b604082019050919050565b600060208201905081810360008301526109f0816109b4565b9050919050565b600081519050919050565b600082825260208201905092915050565b6000819050602082019050919050565b600081519050919050565b600082825260208201905092915050565b60005b83811015610a5d578082015181840152602081019050610a42565b60008484015250505050565b6000610a7482610a23565b610a7e8185610a2e565b9350610a8e818560208601610a3f565b610a97816105dc565b840191505092915050565b6000610aae8383610a69565b905092915050565b6000602082019050919050565b6000610ace826109f7565b610ad88185610a02565b935083602082028501610aea85610a13565b8060005b85811015610b265784840389528151610b078582610aa2565b9450610b1283610ab6565b925060208a01995050600181019050610aee565b50829750879550505050505092915050565b7f4e487b7100000000000000000000000000000000000000000000000000000000600052602160045260246000fd5b60028110610b7857610b77610b38565b5b50565b6000819050610b8982610b67565b919050565b6000610b9982610b7b565b9050919050565b610ba981610b8e565b82525050565b610bb881610828565b82525050565b600060c082019050610bd360008301896105ad565b8181036020830152610be58188610ac3565b9050610bf460408301876105ad565b610c016060830186610ba0565b610c0e6080830185610baf565b610c1b60a083018461092a565b979650505050505050565b6000604082019050610c3b600083018561092a565b610c48602083018461092a565b939250505056fe608060405234801561001057600080fd5b5060405161248338038061248383398181016040528101906100329190610617565b6000855111610076576040517f08c379a000000000000000000000000000000000000000000000000000000000815260040161006d90610743565b60405180910390fd5b4284116100b8576040517f08c379a00000000000000000000000000000000000000000000000000000000081526004016100af906107af565b60405180910390fd5b6001808111156100cb576100ca6107cf565b5b8360018111156100de576100dd6107cf565b5b0361013a5760008260ff161180156100fa575084518260ff1611155b610139576040517f08c379a00000000000000000000000000000000000000000000000000000000081526004016101309061084a565b60405180910390fd5b5b8560008190555084600190805190602001906101579291906101f0565b508360028190555082600360006101000a81548160ff02191690836001811115610184576101836107cf565b5b021790555081600360016101000a81548160ff021916908360ff16021790555080600360026101000a81548173ffffffffffffffffffffffffffffffffffffffff021916908373ffffffffffffffffffffffffffffffffffffffff160217905550505050505050610b53565b828054828255906000526020600020908101928215610238579160200282015b828111156102375782518290816102279190610a81565b5091602001919060010190610210565b5b5090506102459190610249565b5090565b5b808211156102695760008181610260919061026d565b5060010161024a565b5090565b508054610279906108a4565b6000825580601f1061028b57506102aa565b601f0160209004906000526020600020908101906102a991906102ad565b5b50565b5b808211156102c65760008160009055506001016102ae565b5090565b6000604051905090565b600080fd5b600080fd5b6000819050919050565b6102f1816102de565b81146102fc57600080fd5b50565b60008151905061030e816102e8565b92915050565b600080fd5b6000601f19601f8301169050919050565b7f4e487b7100000000000000000000000000000000000000000000000000000000600052604160045260246000fd5b61036282610319565b810181811067ffffffffffffffff821117156103815761038061032a565b5b80604052505050565b60006103946102ca565b90506103a08282610359565b919050565b600067ffffffffffffffff8211156103c0576103bf61032a565b5b602082029050602081019050919050565b600080fd5b600080fd5b600067ffffffffffffffff8211156103f6576103f561032a565b5b6103ff82610319565b9050602081019050919050565b60005b8381101561042a57808201518184015260208101905061040f565b60008484015250505050565b6000610449610444846103db565b61038a565b905082815260208101848484011115610465576104646103d6565b5b61047084828561040c565b509392505050565b600082601f83011261048d5761048c610314565b5b815161049d848260208601610436565b91505092915050565b60006104b96104b4846103a5565b61038a565b905080838252602082019050602084028301858111156104dc576104db6103d1565b5b835b8181101561052357805167ffffffffffffffff81111561050157610500610314565b5b80860161050e8982610478565b855260208501945050506020810190506104de565b5050509392505050565b600082601f83011261054257610541610314565b5b81516105528482602086016104a6565b91505092915050565b6002811061056857600080fd5b50565b60008151905061057a8161055b565b92915050565b600060ff82169050919050565b61059681610580565b81146105a157600080fd5b50565b6000815190506105b38161058d565b92915050565b600073ffffffffffffffffffffffffffffffffffffffff82169050919050565b60006105e4826105b9565b9050919050565b6105f4816105d9565b81146105ff57600080fd5b50565b600081519050610611816105eb565b92915050565b60008060008060008060c08789031215610634576106336102d4565b5b600061064289828a016102ff565b965050602087015167ffffffffffffffff811115610663576106626102d9565b5b61066f89828a0161052d565b955050604061068089828a016102ff565b945050606061069189828a0161056b565b93505060806106a289828a016105a4565b92505060a06106b389828a01610602565b9150509295509295509295565b600082825260208201905092915050565b7f4d7573742068617665206174206c65617374206f6e652070617274696369706160008201527f6e74000000000000000000000000000000000000000000000000000000000000602082015250565b600061072d6022836106c0565b9150610738826106d1565b604082019050919050565b6000602082019050818103600083015261075c81610720565b9050919050565b7f456e642074696d65206d75737420626520696e20746865206675747572650000600082015250565b6000610799601e836106c0565b91506107a482610763565b602082019050919050565b600060208201905081810360008301526107c88161078c565b9050919050565b7f4e487b7100000000000000000000000000000000000000000000000000000000600052602160045260246000fd5b7f496e76616c6964206d61782063686f6963657300000000000000000000000000600082015250565b60006108346013836106c0565b915061083f826107fe565b602082019050919050565b6000602082019050818103600083015261086381610827565b9050919050565b600081519050919050565b7f4e487b7100000000000000000000000000000000000000000000000000000000600052602260045260246000fd5b600060028204905060018216806108bc57607f821691505b6020821081036108cf576108ce610875565b5b50919050565b60008190508160005260206000209050919050565b60006020601f8301049050919050565b600082821b905092915050565b6000600883026109377fffffffffffffffffffffffffffffffffffffffffffffffffffffffffffffffff826108fa565b61094186836108fa565b95508019841693508086168417925050509392505050565b6000819050919050565b600061097e610979610974846102de565b610959565b6102de565b9050919050565b6000819050919050565b61099883610963565b6109ac6109a482610985565b848454610907565b825550505050565b600090565b6109c16109b4565b6109cc81848461098f565b505050565b5b818110156109f0576109e56000826109b9565b6001810190506109d2565b5050565b601f821115610a3557610a06816108d5565b610a0f846108ea565b81016020851015610a1e578190505b610a32610a2a856108ea565b8301826109d1565b50505b505050565b600082821c905092915050565b6000610a5860001984600802610a3a565b1980831691505092915050565b6000610a718383610a47565b9150826002028217905092915050565b610a8a8261086a565b67ffffffffffffffff811115610aa357610aa261032a565b5b610aad82546108a4565b610ab88282856109f4565b600060209050601f831160018114610aeb5760008415610ad9578287015190505b610ae38582610a65565b865550610b4b565b601f198416610af9866108d5565b60005b82811015610b2157848901518255600182019150602085019450602081019050610afc565b86831015610b3e5784890151610b3a601f891682610a47565b8355505b6001600288020188555050505b505050505050565b61192180610b626000396000f3fe608060405234801561001057600080fd5b50600436106100ea5760003560e01c80635fb2c9451161008c578063a85adeab11610066578063a85adeab14610251578063da58c7d91461026f578063ee446dff1461029f578063f1c91b20146102cf576100ea565b80635fb2c945146101f957806390125e68146102155780639648c9f414610233576100ea565b806328b44471116100c857806328b444711461015b57806335c1d3491461018b5780634717f97c146101bb5780634e69d560146101da576100ea565b806302d05d3f146100ef57806309eef43e1461010d57806311174a291461013d575b600080fd5b6100f76102ed565b6040516101049190610b5f565b60405180910390f35b61012760048036038101906101229190610bba565b610313565b6040516101349190610c02565b60405180910390f35b610145610333565b6040516101529190610c36565b60405180910390f35b61017560048036038101906101709190610bba565b610340565b6040516101829190610c02565b60405180910390f35b6101a560048036038101906101a09190610c7d565b610396565b6040516101b29190610d3a565b60405180910390f35b6101c3610442565b6040516101d1929190610f26565b60405180910390f35b6101e26105ec565b6040516101f0929190610f5d565b60405180910390f35b610213600480360381019061020e91906111a1565b61061a565b005b61021d610a7f565b60405161022a9190611206565b60405180910390f35b61023b610a92565b6040516102489190610c36565b60405180910390f35b610259610a98565b6040516102669190610c36565b60405180910390f35b61028960048036038101906102849190610c7d565b610a9e565b6040516102969190610b5f565b60405180910390f35b6102b960048036038101906102b49190611221565b610add565b6040516102c69190610c36565b60405180910390f35b6102d7610b0b565b6040516102e491906112e1565b60405180910390f35b600360029054906101000a900473ffffffffffffffffffffffffffffffffffffffff1681565b60056020528060005260406000206000915054906101000a900460ff1681565b6000600680549050905090565b6000600560008373ffffffffffffffffffffffffffffffffffffffff1673ffffffffffffffffffffffffffffffffffffffff16815260200190815260200160002060009054906101000a900460ff169050919050565b600181815481106103a657600080fd5b9060005260206000200160009150905080546103c19061132b565b80601f01602080910402602001604051908101604052809291908181526020018280546103ed9061132b565b801561043a5780601f1061040f5761010080835404028352916020019161043a565b820191906000526020600020905b81548152906001019060200180831161041d57829003601f168201915b505050505081565b60608060018054905067ffffffffffffffff81111561046457610463610f8b565b5b6040519080825280602002602001820160405280156104925781602001602082028036833780820191505090505b50905060005b60018054905081101561050d576004600182815481106104bb576104ba61135c565b5b906000526020600020016040516104d2919061142e565b9081526020016040518091039020548282815181106104f4576104f361135c565b5b6020026020010181815250508080600101915050610498565b5060018181805480602002602001604051908101604052809291908181526020016000905b828210156105de5783829060005260206000200180546105519061132b565b80601f016020809104026020016040519081016040528092919081815260200182805461057d9061132b565b80156105ca5780601f1061059f576101008083540402835291602001916105ca565b820191906000526020600020905b8154815290600101906020018083116105ad57829003601f168201915b505050505081526020019060010190610532565b505050509150915091509091565b600080600254421091508115610611574260025461060a9190611474565b9050610616565b600090505b9091565b600254421061065e576040517f08c379a0000000000000000000000000000000000000000000000000000000008152600401610655906114f4565b60405180910390fd5b600560003373ffffffffffffffffffffffffffffffffffffffff1673ffffffffffffffffffffffffffffffffffffffff16815260200190815260200160002060009054906101000a900460ff16156106eb576040517f08c379a00000000000000000000000000000000000000000000000000000000081526004016106e290611560565b60405180910390fd5b600060018111156106ff576106fe61126a565b5b600360009054906101000a900460ff1660018111156107215761072061126a565b5b0361076f57600181511461076a576040517f08c379a0000000000000000000000000000000000000000000000000000000008152600401610761906115f2565b60405180910390fd5b61080a565b600360019054906101000a900460ff1660ff16815111156107c5576040517f08c379a00000000000000000000000000000000000000000000000000000000081526004016107bc9061165e565b60405180910390fd5b6000815111610809576040517f08c379a0000000000000000000000000000000000000000000000000000000008152600401610800906116ca565b60405180910390fd5b5b60005b81518160ff1610156108fe576000805b6001805490508160ff1610156108a95760018160ff16815481106108445761084361135c565b5b9060005260206000200160405161085b919061178d565b6040518091039020848460ff16815181106108795761087861135c565b5b6020026020010151805190602001200361089657600191506108a9565b80806108a1906117a4565b91505061081d565b50806108ea576040517f08c379a00000000000000000000000000000000000000000000000000000000081526004016108e190611819565b60405180910390fd5b5080806108f6906117a4565b91505061080d565b506001600560003373ffffffffffffffffffffffffffffffffffffffff1673ffffffffffffffffffffffffffffffffffffffff16815260200190815260200160002060006101000a81548160ff0219169083151502179055506006339080600181540180825580915050600190039060005260206000200160009091909190916101000a81548173ffffffffffffffffffffffffffffffffffffffff021916908373ffffffffffffffffffffffffffffffffffffffff16021790555060005b81518160ff161015610a2d576004828260ff16815181106109e1576109e061135c565b5b60200260200101516040516109f6919061186a565b90815260200160405180910390206000815480929190610a1590611881565b91905055508080610a25906117a4565b9150506109bd565b503373ffffffffffffffffffffffffffffffffffffffff167fb2fad75f8a451a24c9c2c9464e28cb3c08504cc9829dc0f528bb2a0d7acf2fc482604051610a7491906118c9565b60405180910390a250565b600360019054906101000a900460ff1681565b60005481565b60025481565b60068181548110610aae57600080fd5b906000526020600020016000915054906101000a900473ffffffffffffffffffffffffffffffffffffffff1681565b6004818051602081018201805184825260208301602085012081835280955050505050506000915090505481565b600360009054906101000a900460ff1681565b600073ffffffffffffffffffffffffffffffffffffffff82169050919050565b6000610b4982610b1e565b9050919050565b610b5981610b3e565b82525050565b6000602082019050610b746000830184610b50565b92915050565b6000604051905090565b600080fd5b600080fd5b610b9781610b3e565b8114610ba257600080fd5b50565b600081359050610bb481610b8e565b92915050565b600060208284031215610bd057610bcf610b84565b5b6000610bde84828501610ba5565b91505092915050565b60008115159050919050565b610bfc81610be7565b82525050565b6000602082019050610c176000830184610bf3565b92915050565b6000819050919050565b610c3081610c1d565b82525050565b6000602082019050610c4b6000830184610c27565b92915050565b610c5a81610c1d565b8114610c6557600080fd5b50565b600081359050610c7781610c51565b92915050565b600060208284031215610c9357610c92610b84565b5b6000610ca184828501610c68565b91505092915050565b600081519050919050565b600082825260208201905092915050565b60005b83811015610ce4578082015181840152602081019050610cc9565b60008484015250505050565b6000601f19601f8301169050919050565b6000610d0c82610caa565b610d168185610cb5565b9350610d26818560208601610cc6565b610d2f81610cf0565b840191505092915050565b60006020820190508181036000830152610d548184610d01565b905092915050565b600081519050919050565b600082825260208201905092915050565b6000819050602082019050919050565b600082825260208201905092915050565b6000610da482610caa565b610dae8185610d88565b9350610dbe818560208601610cc6565b610dc781610cf0565b840191505092915050565b6000610dde8383610d99565b905092915050565b6000602082019050919050565b6000610dfe82610d5c565b610e088185610d67565b935083602082028501610e1a85610d78565b8060005b85811015610e565784840389528151610e378582610dd2565b9450610e4283610de6565b925060208a01995050600181019050610e1e565b50829750879550505050505092915050565b600081519050919050565b600082825260208201905092915050565b6000819050602082019050919050565b610e9d81610c1d565b82525050565b6000610eaf8383610e94565b60208301905092915050565b6000602082019050919050565b6000610ed382610e68565b610edd8185610e73565b9350610ee883610e84565b8060005b83811015610f19578151610f008882610ea3565b9750610f0b83610ebb565b925050600181019050610eec565b5085935050505092915050565b60006040820190508181036000830152610f408185610df3565b90508181036020830152610f548184610ec8565b90509392505050565b6000604082019050610f726000830185610bf3565b610f7f6020830184610c27565b9392505050565b600080fd5b7f4e487b7100000000000000000000000000000000000000000000000000000000600052604160045260246000fd5b610fc382610cf0565b810181811067ffffffffffffffff82111715610fe257610fe1610f8b565b5b80604052505050565b6000610ff5610b7a565b90506110018282610fba565b919050565b600067ffffffffffffffff82111561102157611020610f8b565b5b602082029050602081019050919050565b600080fd5b600080fd5b600067ffffffffffffffff82111561105757611056610f8b565b5b61106082610cf0565b9050602081019050919050565b82818337600083830152505050565b600061108f61108a8461103c565b610feb565b9050828152602081018484840111156110ab576110aa611037565b5b6110b684828561106d565b509392505050565b600082601f8301126110d3576110d2610f86565b5b81356110e384826020860161107c565b91505092915050565b60006110ff6110fa84611006565b610feb565b9050808382526020820190506020840283018581111561112257611121611032565b5b835b8181101561116957803567ffffffffffffffff81111561114757611146610f86565b5b80860161115489826110be565b85526020850194505050602081019050611124565b5050509392505050565b600082601f83011261118857611187610f86565b5b81356111988482602086016110ec565b91505092915050565b6000602082840312156111b7576111b6610b84565b5b600082013567ffffffffffffffff8111156111d5576111d4610b89565b5b6111e184828501611173565b91505092915050565b600060ff82169050919050565b611200816111ea565b82525050565b600060208201905061121b60008301846111f7565b92915050565b60006020828403121561123757611236610b84565b5b600082013567ffffffffffffffff81111561125557611254610b89565b5b611261848285016110be565b91505092915050565b7f4e487b7100000000000000000000000000000000000000000000000000000000600052602160045260246000fd5b600281106112aa576112a961126a565b5b50565b60008190506112bb82611299565b919050565b60006112cb826112ad565b9050919050565b6112db816112c0565b82525050565b60006020820190506112f660008301846112d2565b92915050565b7f4e487b7100000000000000000000000000000000000000000000000000000000600052602260045260246000fd5b6000600282049050600182168061134357607f821691505b602082108103611356576113556112fc565b5b50919050565b7f4e487b7100000000000000000000000000000000000000000000000000000000600052603260045260246000fd5b600081905092915050565b60008190508160005260206000209050919050565b600081546113b88161132b565b6113c2818661138b565b945060018216600081146113dd57600181146113f257611425565b60ff1983168652811515820286019350611425565b6113fb85611396565b60005b8381101561141d578154818901526001820191506020810190506113fe565b838801955050505b50505092915050565b600061143a82846113ab565b915081905092915050565b7f4e487b7100000000000000000000000000000000000000000000000000000000600052601160045260246000fd5b600061147f82610c1d565b915061148a83610c1d565b92508282039050818111156114a2576114a1611445565b5b92915050565b7f566f74696e672073657373696f6e2068617320656e6465640000000000000000600082015250565b60006114de601883610cb5565b91506114e9826114a8565b602082019050919050565b6000602082019050818103600083015261150d816114d1565b9050919050565b7f416c726561647920766f74656400000000000000000000000000000000000000600082015250565b600061154a600d83610cb5565b915061155582611514565b602082019050919050565b600060208201905081810360008301526115798161153d565b9050919050565b7f53696e676c6520766f7465206d6f64652072657175697265732065786163746c60008201527f79206f6e652063686f6963650000000000000000000000000000000000000000602082015250565b60006115dc602c83610cb5565b91506115e782611580565b604082019050919050565b6000602082019050818103600083015261160b816115cf565b9050919050565b7f546f6f206d616e792063686f696365732073656c656374656400000000000000600082015250565b6000611648601983610cb5565b915061165382611612565b602082019050919050565b600060208201905081810360008301526116778161163b565b9050919050565b7f4d7573742073656c656374206174206c65617374206f6e652063686f69636500600082015250565b60006116b4601f83610cb5565b91506116bf8261167e565b602082019050919050565b600060208201905081810360008301526116e3816116a7565b9050919050565b600081905092915050565b60008190508160005260206000209050919050565b600081546117178161132b565b61172181866116ea565b9450600182166000811461173c576001811461175157611784565b60ff1983168652811515820286019350611784565b61175a856116f5565b60005b8381101561177c5781548189015260018201915060208101905061175d565b838801955050505b50505092915050565b6000611799828461170a565b915081905092915050565b60006117af826111ea565b915060ff82036117c2576117c1611445565b5b600182019050919050565b7f496e76616c69642063686f696365000000000000000000000000000000000000600082015250565b6000611803600e83610cb5565b915061180e826117cd565b602082019050919050565b60006020820190508181036000830152611832816117f6565b9050919050565b600061184482610caa565b61184e818561138b565b935061185e818560208601610cc6565b80840191505092915050565b60006118768284611839565b915081905092915050565b600061188c82610c1d565b91507fffffffffffffffffffffffffffffffffffffffffffffffffffffffffffffffff82036118be576118bd611445565b5b600182019050919050565b600060208201905081810360008301526118e38184610df3565b90509291505056fea2646970667358221220ef9ae09d6f5b52d57e16461e66906a2c30f88289531324d45f23946ba387974964736f6c634300081c0033a2646970667358221220cb9983c82c0d11e68ea1b148718a53403191f08610063838c440a27c81e06d2264736f6c634300081c0033",
  "linkReferences": {},
  "deployedLinkReferences": {}
}