{
  "_format": "hh-sol-artifact-1",
  "contractName": "VotingSystem",
  "sourceName": "contracts/VotingSystem.sol",
  "abi": [
    {
      "anonymous": false,
      "inputs": [
        {
          "indexed": true,
          "internalType": "address",
          "name": "previousOwner",
          "type": "address"
        },
        {
          "indexed": true,
          "internalType": "address",
          "name": "newOwner",
          "type": "address"
        }
      ],
      "name": "OwnershipTransferred",
      "type": "event"
    },
    {
      "anonymous": false,
      "inputs": [
        {
          "indexed": false,
          "internalType": "string",
          "name": "sessionId",
          "type": "string"
        },
        {
          "indexed": false,
          "internalType": "uint256",
          "name": "choicesCount",
          "type": "uint256"
        },
        {
          "indexed": false,
          "internalType": "enum VotingSystem.VoteMode",
          "name": "voteMode",
          "type": "uint8"
        }
      ],
      "name": "SessionCreated",
      "type": "event"
    },
    {
      "anonymous": false,
      "inputs": [
        {
          "indexed": false,
          "internalType": "string",
          "name": "sessionId",
          "type": "string"
        }
      ],
      "name": "SessionEnded",
      "type": "event"
    },
    {
      "anonymous": false,
      "inputs": [
        {
          "indexed": false,
          "internalType": "string",
          "name": "sessionId",
          "type": "string"
        },
        {
          "indexed": false,
          "internalType": "address",
          "name": "voter",
          "type": "address"
        }
      ],
      "name": "VoteCast",
      "type": "event"
    },
    {
      "inputs": [
        {
          "internalType": "string",
          "name": "sessionId",
          "type": "string"
        },
        {
          "internalType": "string[]",
          "name": "rankedChoices",
          "type": "string[]"
        }
      ],
      "name": "castRankedVote",
      "outputs": [],
      "stateMutability": "nonpayable",
      "type": "function"
    },
    {
      "inputs": [
        {
          "internalType": "string",
          "name": "sessionId",
          "type": "string"
        },
        {
          "internalType": "string[]",
          "name": "choiceIds",
          "type": "string[]"
        }
      ],
      "name": "castVote",
      "outputs": [],
      "stateMutability": "nonpayable",
      "type": "function"
    },
    {
      "inputs": [
        {
          "internalType": "string",
          "name": "sessionId",
          "type": "string"
        },
        {
          "internalType": "string[]",
          "name": "choices",
          "type": "string[]"
        },
        {
          "internalType": "enum VotingSystem.VoteMode",
          "name": "voteMode",
          "type": "uint8"
        }
      ],
      "name": "createSession",
      "outputs": [],
      "stateMutability": "nonpayable",
      "type": "function"
    },
    {
      "inputs": [
        {
          "internalType": "string",
          "name": "sessionId",
          "type": "string"
        }
      ],
      "name": "endSession",
      "outputs": [],
      "stateMutability": "nonpayable",
      "type": "function"
    },
    {
      "inputs": [
        {
          "internalType": "string",
          "name": "sessionId",
          "type": "string"
        },
        {
          "internalType": "string",
          "name": "choiceId",
          "type": "string"
        }
      ],
      "name": "getChoiceResult",
      "outputs": [
        {
          "internalType": "uint256",
          "name": "",
          "type": "uint256"
        }
      ],
      "stateMutability": "view",
      "type": "function"
    },
    {
      "inputs": [
        {
          "internalType": "string",
          "name": "sessionId",
          "type": "string"
        }
      ],
      "name": "getSessionChoices",
      "outputs": [
        {
          "internalType": "string[]",
          "name": "",
          "type": "string[]"
        }
      ],
      "stateMutability": "view",
      "type": "function"
    },
    {
      "inputs": [
        {
          "internalType": "string",
          "name": "sessionId",
          "type": "string"
        }
      ],
      "name": "getSessionVoteMode",
      "outputs": [
        {
          "internalType": "enum VotingSystem.VoteMode",
          "name": "",
          "type": "uint8"
        }
      ],
      "stateMutability": "view",
      "type": "function"
    },
    {
      "inputs": [
        {
          "internalType": "string",
          "name": "sessionId",
          "type": "string"
        },
        {
          "internalType": "address",
          "name": "voter",
          "type": "address"
        }
      ],
      "name": "hasVoted",
      "outputs": [
        {
          "internalType": "bool",
          "name": "",
          "type": "bool"
        }
      ],
      "stateMutability": "view",
      "type": "function"
    },
    {
      "inputs": [
        {
          "internalType": "string",
          "name": "sessionId",
          "type": "string"
        }
      ],
      "name": "isSessionActive",
      "outputs": [
        {
          "internalType": "bool",
          "name": "",
          "type": "bool"
        }
      ],
      "stateMutability": "view",
      "type": "function"
    },
    {
      "inputs": [],
      "name": "owner",
      "outputs": [
        {
          "internalType": "address",
          "name": "",
          "type": "address"
        }
      ],
      "stateMutability": "view",
      "type": "function"
    },
    {
      "inputs": [],
      "name": "renounceOwnership",
      "outputs": [],
      "stateMutability": "nonpayable",
      "type": "function"
    },
    {
      "inputs": [
        {
          "internalType": "address",
          "name": "newOwner",
          "type": "address"
        }
      ],
      "name": "transferOwnership",
      "outputs": [],
      "stateMutability": "nonpayable",
      "type": "function"
    }
  ],
  "bytecode": "0x60806040523480156200001157600080fd5b5062000032620000266200003860201b60201c565b6200004060201b60201c565b62000104565b600033905090565b60008060009054906101000a900473ffffffffffffffffffffffffffffffffffffffff169050816000806101000a81548173ffffffffffffffffffffffffffffffffffffffff021916908373ffffffffffffffffffffffffffffffffffffffff1602179055508173ffffffffffffffffffffffffffffffffffffffff168173ffffffffffffffffffffffffffffffffffffffff167f8be0079c531659141344cd1fd0a4f28419497f9722a3daafe3b4186f6b6457e060405160405180910390a35050565b61293a80620001146000396000f3fe608060405234801561001057600080fd5b50600436106100b45760003560e01c80638da5cb5b116100715780638da5cb5b1461018b5780639af06cd9146101a95780639c802980146101d9578063dad113c914610209578063e544111f14610225578063f2fde38b14610241576100b4565b80633b131524146100b95780634eb8b997146100e957806351a1dc5e1461010557806363400370146101355780636c0994ca14610165578063715018a614610181575b600080fd5b6100d360048036038101906100ce919061162c565b61025d565b6040516100e091906117b6565b60405180910390f35b61010360048036038101906100fe91906118be565b6103a7565b005b61011f600480360381019061011a919061162c565b6107ae565b60405161012c91906119ad565b60405180910390f35b61014f600480360381019061014a91906119c8565b610835565b60405161015c9190611a59565b60405180910390f35b61017f600480360381019061017a919061162c565b6108cc565b005b6101896109e9565b005b6101936109fd565b6040516101a09190611ab5565b60405180910390f35b6101c360048036038101906101be9190611afc565b610a26565b6040516101d09190611b73565b60405180910390f35b6101f360048036038101906101ee919061162c565b610aeb565b6040516102009190611b73565b60405180910390f35b610223600480360381019061021e9190611bb3565b610b53565b005b61023f600480360381019061023a91906118be565b610cf3565b005b61025b60048036038101906102569190611c3e565b611174565b005b606060006001836040516102719190611ca7565b9081526020016040518091039020905060008160000180549050116102cb576040517f08c379a00000000000000000000000000000000000000000000000000000000081526004016102c290611d1b565b60405180910390fd5b80600001805480602002602001604051908101604052809291908181526020016000905b8282101561039b57838290600052602060002001805461030e90611d6a565b80601f016020809104026020016040519081016040528092919081815260200182805461033a90611d6a565b80156103875780601f1061035c57610100808354040283529160200191610387565b820191906000526020600020905b81548152906001019060200180831161036a57829003601f168201915b5050505050815260200190600101906102ef565b50505050915050919050565b60006001836040516103b99190611ca7565b908152602001604051809103902090506000816000018054905011610413576040517f08c379a000000000000000000000000000000000000000000000000000000000815260040161040a90611d1b565b60405180910390fd5b8060010160019054906101000a900460ff16610464576040517f08c379a000000000000000000000000000000000000000000000000000000000815260040161045b90611de7565b60405180910390fd5b8060020160003373ffffffffffffffffffffffffffffffffffffffff1673ffffffffffffffffffffffffffffffffffffffff16815260200190815260200160002060009054906101000a900460ff16156104f3576040517f08c379a00000000000000000000000000000000000000000000000000000000081526004016104ea90611e53565b60405180910390fd5b60028081111561050657610505611936565b5b8160010160009054906101000a900460ff16600281111561052a57610529611936565b5b1461056a576040517f08c379a000000000000000000000000000000000000000000000000000000000815260040161056190611ebf565b60405180910390fd5b60008251116105ae576040517f08c379a00000000000000000000000000000000000000000000000000000000081526004016105a590611f2b565b60405180910390fd5b8060000180549050825111156105f9576040517f08c379a00000000000000000000000000000000000000000000000000000000081526004016105f090611f97565b60405180910390fd5b60005b825181101561063c576106298284838151811061061c5761061b611fb7565b5b60200260200101516111f7565b808061063490612015565b9150506105fc565b50818160040160003373ffffffffffffffffffffffffffffffffffffffff1673ffffffffffffffffffffffffffffffffffffffff16815260200190815260200160002090805190602001906106929291906113f8565b5060005b82518110156107155760008184516106ae919061205d565b905080836003018584815181106106c8576106c7611fb7565b5b60200260200101516040516106dd9190611ca7565b908152602001604051809103902060008282546106fa9190612091565b9250508190555050808061070d90612015565b915050610696565b5060018160020160003373ffffffffffffffffffffffffffffffffffffffff1673ffffffffffffffffffffffffffffffffffffffff16815260200190815260200160002060006101000a81548160ff0219169083151502179055507f85ccb673c0f28c4b8ba00fe954146d91c099b133e47a392bd0f6b547490d365f83336040516107a19291906120fe565b60405180910390a1505050565b6000806001836040516107c19190611ca7565b90815260200160405180910390209050600081600001805490501161081b576040517f08c379a000000000000000000000000000000000000000000000000000000000815260040161081290611d1b565b60405180910390fd5b8060010160009054906101000a900460ff16915050919050565b6000806001846040516108489190611ca7565b9081526020016040518091039020905060008160000180549050116108a2576040517f08c379a000000000000000000000000000000000000000000000000000000000815260040161089990611d1b565b60405180910390fd5b80600301836040516108b49190611ca7565b90815260200160405180910390205491505092915050565b6108d46112ae565b60006001826040516108e69190611ca7565b908152602001604051809103902090506000816000018054905011610940576040517f08c379a000000000000000000000000000000000000000000000000000000000815260040161093790611d1b565b60405180910390fd5b8060010160019054906101000a900460ff16610991576040517f08c379a00000000000000000000000000000000000000000000000000000000081526004016109889061217a565b60405180910390fd5b60008160010160016101000a81548160ff0219169083151502179055507fd7622a2bf3ac6ee0b52cdfd4d41531717984dbb069da750c1121e35ac3f07254826040516109dd919061219a565b60405180910390a15050565b6109f16112ae565b6109fb600061132c565b565b60008060009054906101000a900473ffffffffffffffffffffffffffffffffffffffff16905090565b600080600184604051610a399190611ca7565b908152602001604051809103902090506000816000018054905011610a93576040517f08c379a0000000000000000000000000000000000000000000000000000000008152600401610a8a90611d1b565b60405180910390fd5b8060020160008473ffffffffffffffffffffffffffffffffffffffff1673ffffffffffffffffffffffffffffffffffffffff16815260200190815260200160002060009054906101000a900460ff1691505092915050565b6000600182604051610afd9190611ca7565b908152602001604051809103902060010160019054906101000a900460ff168015610b4c57506000600183604051610b359190611ca7565b908152602001604051809103902060000180549050115b9050919050565b610b5b6112ae565b6000825111610b9f576040517f08c379a0000000000000000000000000000000000000000000000000000000008152600401610b9690612208565b60405180910390fd5b6000835111610be3576040517f08c379a0000000000000000000000000000000000000000000000000000000008152600401610bda90612274565b60405180910390fd5b6000600184604051610bf59190611ca7565b908152602001604051809103902090506000816000018054905014610c4f576040517f08c379a0000000000000000000000000000000000000000000000000000000008152600401610c46906122e0565b60405180910390fd5b82816000019080519060200190610c679291906113f8565b50818160010160006101000a81548160ff02191690836002811115610c8f57610c8e611936565b5b021790555060018160010160016101000a81548160ff0219169083151502179055507f1defea3e39a221ae141a0659a80e5f497346412a929aaee868bbfc335cccb8b884845184604051610ce593929190612300565b60405180910390a150505050565b6000600183604051610d059190611ca7565b908152602001604051809103902090506000816000018054905011610d5f576040517f08c379a0000000000000000000000000000000000000000000000000000000008152600401610d5690611d1b565b60405180910390fd5b8060010160019054906101000a900460ff16610db0576040517f08c379a0000000000000000000000000000000000000000000000000000000008152600401610da790611de7565b60405180910390fd5b8060020160003373ffffffffffffffffffffffffffffffffffffffff1673ffffffffffffffffffffffffffffffffffffffff16815260200190815260200160002060009054906101000a900460ff1615610e3f576040517f08c379a0000000000000000000000000000000000000000000000000000000008152600401610e3690611e53565b60405180910390fd5b60006002811115610e5357610e52611936565b5b8160010160009054906101000a900460ff166002811115610e7757610e76611936565b5b03610f3b576001825114610ec0576040517f08c379a0000000000000000000000000000000000000000000000000000000008152600401610eb7906123b0565b60405180910390fd5b610ee58183600081518110610ed857610ed7611fb7565b5b60200260200101516111f7565b8060030182600081518110610efd57610efc611fb7565b5b6020026020010151604051610f129190611ca7565b90815260200160405180910390206000815480929190610f3190612015565b91905055506110dc565b60016002811115610f4f57610f4e611936565b5b8160010160009054906101000a900460ff166002811115610f7357610f72611936565b5b036110a0576000825111610fbc576040517f08c379a0000000000000000000000000000000000000000000000000000000008152600401610fb390611f2b565b60405180910390fd5b806000018054905082511115611007576040517f08c379a0000000000000000000000000000000000000000000000000000000008152600401610ffe90611f97565b60405180910390fd5b60005b825181101561109a576110378284838151811061102a57611029611fb7565b5b60200260200101516111f7565b8160030183828151811061104e5761104d611fb7565b5b60200260200101516040516110639190611ca7565b9081526020016040518091039020600081548092919061108290612015565b9190505550808061109290612015565b91505061100a565b506110db565b6040517f08c379a00000000000000000000000000000000000000000000000000000000081526004016110d290612442565b60405180910390fd5b5b60018160020160003373ffffffffffffffffffffffffffffffffffffffff1673ffffffffffffffffffffffffffffffffffffffff16815260200190815260200160002060006101000a81548160ff0219169083151502179055507f85ccb673c0f28c4b8ba00fe954146d91c099b133e47a392bd0f6b547490d365f83336040516111679291906120fe565b60405180910390a1505050565b61117c6112ae565b600073ffffffffffffffffffffffffffffffffffffffff168173ffffffffffffffffffffffffffffffffffffffff16036111eb576040517f08c379a00000000000000000000000000000000000000000000000000000000081526004016111e2906124d4565b60405180910390fd5b6111f48161132c565b50565b6000805b836000018054905081101561126857828051906020012084600001828154811061122857611227611fb7565b5b9060005260206000200160405161123f9190612597565b6040518091039020036112555760019150611268565b808061126090612015565b9150506111fb565b50806112a9576040517f08c379a00000000000000000000000000000000000000000000000000000000081526004016112a0906125fa565b60405180910390fd5b505050565b6112b66113f0565b73ffffffffffffffffffffffffffffffffffffffff166112d46109fd565b73ffffffffffffffffffffffffffffffffffffffff161461132a576040517f08c379a000000000000000000000000000000000000000000000000000000000815260040161132190612666565b60405180910390fd5b565b60008060009054906101000a900473ffffffffffffffffffffffffffffffffffffffff169050816000806101000a81548173ffffffffffffffffffffffffffffffffffffffff021916908373ffffffffffffffffffffffffffffffffffffffff1602179055508173ffffffffffffffffffffffffffffffffffffffff168173ffffffffffffffffffffffffffffffffffffffff167f8be0079c531659141344cd1fd0a4f28419497f9722a3daafe3b4186f6b6457e060405160405180910390a35050565b600033905090565b828054828255906000526020600020908101928215611440579160200282015b8281111561143f57825182908161142f9190612832565b5091602001919060010190611418565b5b50905061144d9190611451565b5090565b5b8082111561147157600081816114689190611475565b50600101611452565b5090565b50805461148190611d6a565b6000825580601f1061149357506114b2565b601f0160209004906000526020600020908101906114b191906114b5565b5b50565b5b808211156114ce5760008160009055506001016114b6565b5090565b6000604051905090565b600080fd5b600080fd5b600080fd5b600080fd5b6000601f19601f8301169050919050565b7f4e487b7100000000000000000000000000000000000000000000000000000000600052604160045260246000fd5b611539826114f0565b810181811067ffffffffffffffff8211171561155857611557611501565b5b80604052505050565b600061156b6114d2565b90506115778282611530565b919050565b600067ffffffffffffffff82111561159757611596611501565b5b6115a0826114f0565b9050602081019050919050565b82818337600083830152505050565b60006115cf6115ca8461157c565b611561565b9050828152602081018484840111156115eb576115ea6114eb565b5b6115f68482856115ad565b509392505050565b600082601f830112611613576116126114e6565b5b81356116238482602086016115bc565b91505092915050565b600060208284031215611642576116416114dc565b5b600082013567ffffffffffffffff8111156116605761165f6114e1565b5b61166c848285016115fe565b91505092915050565b600081519050919050565b600082825260208201905092915050565b6000819050602082019050919050565b600081519050919050565b600082825260208201905092915050565b60005b838110156116db5780820151818401526020810190506116c0565b60008484015250505050565b60006116f2826116a1565b6116fc81856116ac565b935061170c8185602086016116bd565b611715816114f0565b840191505092915050565b600061172c83836116e7565b905092915050565b6000602082019050919050565b600061174c82611675565b6117568185611680565b93508360208202850161176885611691565b8060005b858110156117a457848403895281516117858582611720565b945061179083611734565b925060208a0199505060018101905061176c565b50829750879550505050505092915050565b600060208201905081810360008301526117d08184611741565b905092915050565b600067ffffffffffffffff8211156117f3576117f2611501565b5b602082029050602081019050919050565b600080fd5b600061181c611817846117d8565b611561565b9050808382526020820190506020840283018581111561183f5761183e611804565b5b835b8181101561188657803567ffffffffffffffff811115611864576118636114e6565b5b80860161187189826115fe565b85526020850194505050602081019050611841565b5050509392505050565b600082601f8301126118a5576118a46114e6565b5b81356118b5848260208601611809565b91505092915050565b600080604083850312156118d5576118d46114dc565b5b600083013567ffffffffffffffff8111156118f3576118f26114e1565b5b6118ff858286016115fe565b925050602083013567ffffffffffffffff8111156119205761191f6114e1565b5b61192c85828601611890565b9150509250929050565b7f4e487b7100000000000000000000000000000000000000000000000000000000600052602160045260246000fd5b6003811061197657611975611936565b5b50565b600081905061198782611965565b919050565b600061199782611979565b9050919050565b6119a78161198c565b82525050565b60006020820190506119c2600083018461199e565b92915050565b600080604083850312156119df576119de6114dc565b5b600083013567ffffffffffffffff8111156119fd576119fc6114e1565b5b611a09858286016115fe565b925050602083013567ffffffffffffffff811115611a2a57611a296114e1565b5b611a36858286016115fe565b9150509250929050565b6000819050919050565b611a5381611a40565b82525050565b6000602082019050611a6e6000830184611a4a565b92915050565b600073ffffffffffffffffffffffffffffffffffffffff82169050919050565b6000611a9f82611a74565b9050919050565b611aaf81611a94565b82525050565b6000602082019050611aca6000830184611aa6565b92915050565b611ad981611a94565b8114611ae457600080fd5b50565b600081359050611af681611ad0565b92915050565b60008060408385031215611b1357611b126114dc565b5b600083013567ffffffffffffffff811115611b3157611b306114e1565b5b611b3d858286016115fe565b9250506020611b4e85828601611ae7565b9150509250929050565b60008115159050919050565b611b6d81611b58565b82525050565b6000602082019050611b886000830184611b64565b92915050565b60038110611b9b57600080fd5b50565b600081359050611bad81611b8e565b92915050565b600080600060608486031215611bcc57611bcb6114dc565b5b600084013567ffffffffffffffff811115611bea57611be96114e1565b5b611bf6868287016115fe565b935050602084013567ffffffffffffffff811115611c1757611c166114e1565b5b611c2386828701611890565b9250506040611c3486828701611b9e565b9150509250925092565b600060208284031215611c5457611c536114dc565b5b6000611c6284828501611ae7565b91505092915050565b600081905092915050565b6000611c81826116a1565b611c8b8185611c6b565b9350611c9b8185602086016116bd565b80840191505092915050565b6000611cb38284611c76565b915081905092915050565b600082825260208201905092915050565b7f53657373696f6e20646f6573206e6f7420657869737400000000000000000000600082015250565b6000611d05601683611cbe565b9150611d1082611ccf565b602082019050919050565b60006020820190508181036000830152611d3481611cf8565b9050919050565b7f4e487b7100000000000000000000000000000000000000000000000000000000600052602260045260246000fd5b60006002820490506001821680611d8257607f821691505b602082108103611d9557611d94611d3b565b5b50919050565b7f53657373696f6e206973206e6f74206163746976650000000000000000000000600082015250565b6000611dd1601583611cbe565b9150611ddc82611d9b565b602082019050919050565b60006020820190508181036000830152611e0081611dc4565b9050919050565b7f416c726561647920766f74656420696e20746869732073657373696f6e000000600082015250565b6000611e3d601d83611cbe565b9150611e4882611e07565b602082019050919050565b60006020820190508181036000830152611e6c81611e30565b9050919050565b7f53657373696f6e206973206e6f7420696e2052414e4b4544206d6f6465000000600082015250565b6000611ea9601d83611cbe565b9150611eb482611e73565b602082019050919050565b60006020820190508181036000830152611ed881611e9c565b9050919050565b7f4d757374207375626d6974206174206c65617374206f6e652063686f69636500600082015250565b6000611f15601f83611cbe565b9150611f2082611edf565b602082019050919050565b60006020820190508181036000830152611f4481611f08565b9050919050565b7f546f6f206d616e792063686f69636573207375626d6974746564000000000000600082015250565b6000611f81601a83611cbe565b9150611f8c82611f4b565b602082019050919050565b60006020820190508181036000830152611fb081611f74565b9050919050565b7f4e487b7100000000000000000000000000000000000000000000000000000000600052603260045260246000fd5b7f4e487b7100000000000000000000000000000000000000000000000000000000600052601160045260246000fd5b600061202082611a40565b91507fffffffffffffffffffffffffffffffffffffffffffffffffffffffffffffffff820361205257612051611fe6565b5b600182019050919050565b600061206882611a40565b915061207383611a40565b925082820390508181111561208b5761208a611fe6565b5b92915050565b600061209c82611a40565b91506120a783611a40565b92508282019050808211156120bf576120be611fe6565b5b92915050565b60006120d0826116a1565b6120da8185611cbe565b93506120ea8185602086016116bd565b6120f3816114f0565b840191505092915050565b6000604082019050818103600083015261211881856120c5565b90506121276020830184611aa6565b9392505050565b7f53657373696f6e20616c726561647920656e6465640000000000000000000000600082015250565b6000612164601583611cbe565b915061216f8261212e565b602082019050919050565b6000602082019050818103600083015261219381612157565b9050919050565b600060208201905081810360008301526121b481846120c5565b905092915050565b7f43686f696365732061727261792063616e6e6f7420626520656d707479000000600082015250565b60006121f2601d83611cbe565b91506121fd826121bc565b602082019050919050565b60006020820190508181036000830152612221816121e5565b9050919050565b7f53657373696f6e2049442063616e6e6f7420626520656d707479000000000000600082015250565b600061225e601a83611cbe565b915061226982612228565b602082019050919050565b6000602082019050818103600083015261228d81612251565b9050919050565b7f53657373696f6e20616c72656164792065786973747300000000000000000000600082015250565b60006122ca601683611cbe565b91506122d582612294565b602082019050919050565b600060208201905081810360008301526122f9816122bd565b9050919050565b6000606082019050818103600083015261231a81866120c5565b90506123296020830185611a4a565b612336604083018461199e565b949350505050565b7f53696e676c6520766f7465206d6f64652072657175697265732065786163746c60008201527f79206f6e652063686f6963650000000000000000000000000000000000000000602082015250565b600061239a602c83611cbe565b91506123a58261233e565b604082019050919050565b600060208201905081810360008301526123c98161238d565b9050919050565b7f557365206361737452616e6b6564566f746520666f722052414e4b4544206d6f60008201527f6465000000000000000000000000000000000000000000000000000000000000602082015250565b600061242c602283611cbe565b9150612437826123d0565b604082019050919050565b6000602082019050818103600083015261245b8161241f565b9050919050565b7f4f776e61626c653a206e6577206f776e657220697320746865207a65726f206160008201527f6464726573730000000000000000000000000000000000000000000000000000602082015250565b60006124be602683611cbe565b91506124c982612462565b604082019050919050565b600060208201905081810360008301526124ed816124b1565b9050919050565b600081905092915050565b60008190508160005260206000209050919050565b6000815461252181611d6a565b61252b81866124f4565b94506001821660008114612546576001811461255b5761258e565b60ff198316865281151582028601935061258e565b612564856124ff565b60005b8381101561258657815481890152600182019150602081019050612567565b838801955050505b50505092915050565b60006125a38284612514565b915081905092915050565b7f496e76616c69642063686f696365204944000000000000000000000000000000600082015250565b60006125e4601183611cbe565b91506125ef826125ae565b602082019050919050565b60006020820190508181036000830152612613816125d7565b9050919050565b7f4f776e61626c653a2063616c6c6572206973206e6f7420746865206f776e6572600082015250565b6000612650602083611cbe565b915061265b8261261a565b602082019050919050565b6000602082019050818103600083015261267f81612643565b9050919050565b60008190508160005260206000209050919050565b60006020601f8301049050919050565b600082821b905092915050565b6000600883026126e87fffffffffffffffffffffffffffffffffffffffffffffffffffffffffffffffff826126ab565b6126f286836126ab565b95508019841693508086168417925050509392505050565b6000819050919050565b600061272f61272a61272584611a40565b61270a565b611a40565b9050919050565b6000819050919050565b61274983612714565b61275d61275582612736565b8484546126b8565b825550505050565b600090565b612772612765565b61277d818484612740565b505050565b5b818110156127a15761279660008261276a565b600181019050612783565b5050565b601f8211156127e6576127b781612686565b6127c08461269b565b810160208510156127cf578190505b6127e36127db8561269b565b830182612782565b50505b505050565b600082821c905092915050565b6000612809600019846008026127eb565b1980831691505092915050565b600061282283836127f8565b9150826002028217905092915050565b61283b826116a1565b67ffffffffffffffff81111561285457612853611501565b5b61285e8254611d6a565b6128698282856127a5565b600060209050601f83116001811461289c576000841561288a578287015190505b6128948582612816565b8655506128fc565b601f1984166128aa86612686565b60005b828110156128d2578489015182556001820191506020850194506020810190506128ad565b868310156128ef57848901516128eb601f8916826127f8565b8355505b6001600288020188555050505b50505050505056fea264697066735822122027856270605a6be11e1c7fd0c7c1b21f28ad9f12f4f29675ff02330f9a421af664736f6c63430008130033",
  "linkReferences": {},
  "deployedLinkReferences": {}
}